S0110000696E746572727570742E7372656326
S11300000C9480000C949F000C949F000C949F000F
S11300100C949F000C949F000C949F000C949F00E0
S11300200C949F000C949F000C949F000C949F00D0
S11300300C949F000C949F000C949F000C949F00C0
S11300400C949F000C949F000C949F000C949F00B0
S11300500C949F000C949F000C949F000C949F00A0
S11300600C949F000C949F000C949F000C949F0090
S11300700C949F000C949F000C949F000C949F0080
S11300800C949F000C949F000C949F000C949F0070
S11300900C949F000C949F000C949F000C949F0060
S11300A00C949F000C949F000C949F000C949F0050
S11300B00C9427010C949F000C949F000C949F00B7
S11300C00C949F000C949F000C949F000C949F0030
S11300D00C949F000C949F000C949F000C949F0020
S11300E00C949F000C949F000C949F000C949F0010
S11300F00C949F000C949F000C949F000C949F0000
S113010011241FBECFEFCDBFDFE7DEBF10E4A0E0B8
S1130110B0E4E4E9F6E000E00BBF02C007900D9202
S1130120A431B107D9F720E4A4E1B0E401C01D92E1
S1130130A834B207E1F70E94F9000C9448030C9428
S11301400000E0E4F4E020812D7F20832081216001
S11301502083BC0180E090E00E944D0220E030E06A
S113016040E851E40E94DB029B01AC0160E074E2D0
S113017084E79DE40E94AC0120E030E040E05FE3CE
S11301800E9440010E941E02E0E2F8E0608771874D
S11301908681806C86830895E0E2F8E0948195FF7F
S11301A0FDCF809322080895EF92FF920F931F933F
S11301B0CF93DF938C017C01C0E0D0E006C0F7014F
S11301C081917F010E94CC002196F80101900020CA
S11301D0E9F73197E01BF10BCE17DF0780F38AE0D4
S11301E00E94CC00DF91CF911F910F91FF90EF906F
S11301F008957894E0E2F4E08281846082838289C5
S11302008B60828B80E895E20E94A1002FE788E34F
S113021091E0215080409040E1F700C0000080E070
S113022090E40E94D400C0E2D4E0809146409091D2
S11302304740892B41F087E090E40E94D40010925B
S1130240464010924740898584608987EECF1F928B
S11302500F920FB60F9211248F939F9380912904CC
S113026082FF06C081E090E080934640909347402F
S11302709F918F910F900FBE0F901F90189550581B
S1130280BB27AA270E9457010C94A1020E94930243
S113029038F00E949A0220F039F49F3F19F426F4B2
S11302A00C9490020EF4E095E7FB0C948A02E92F7B
S11302B00E94B20258F3BA176207730784079507BE
S11302C020F079F4A6F50C94D4020EF4E0950B2EEC
S11302D0BA2FA02D0B01B90190010C01CA01A00194
S11302E01124FF27591B99F0593F50F4503E68F1EF
S11302F01A16F040A22F232F342F4427585FF3CF30
S1130300469537952795A795F0405395C9F77EF400
S11303101F16BA0B620B730B840BBAF09150A1F049
S1130320FF0FBB1F661F771F881FC2F70EC0BA0FCF
S1130330621F731F841F48F4879577956795B79557
S1130340F7959E3F08F0B0CF9395880F08F0992752
S1130350EE0F9795879508950E94C0010C94A10211
S11303600E949A0258F00E94930240F029F45F3FE1
S113037029F00C948A0251110C94D5020C94900229
S11303800E94B20268F39923B1F3552391F3951BAC
S1130390550BBB27AA2762177307840738F09F5FA2
S11303A05F4F220F331F441FAA1FA9F335D00E2E0F
S11303B03AF0E0E832D091505040E695001CCAF77C
S11303C02BD0FE2F29D0660F771F881FBB1F26173F
S11303D037074807AB07B0E809F0BB0B802DBF0116
S11303E0FF2793585F4F3AF09E3F510578F00C94E5
S11303F08A020C94D5025F3FE4F3983ED4F38695C9
S113040077956795B795F7959F5FC9F7880F911D05
S11304109695879597F90895E1E0660F771F881FF1
S1130420BB1F621773078407BA0720F0621B730BA4
S1130430840BBA0BEE1F88F7E09508950E94BA0268
S113044088F09F5798F0B92F9927B751B0F0E1F091
S1130450660F771F881F991F1AF0BA95C9F714C041
S1130460B13091F00E94D402B1E008950C94D4020A
S1130470672F782F8827B85F39F0B93FCCF386957A
S113048077956795B395D9F73EF4909580957095D7
S113049061957F4F8F4F9F4F0895E89409C097FB54
S11304A03EF490958095709561957F4F8F4F9F4F47
S11304B09923A9F0F92F96E9BB279395F69587958B
S11304C077956795B795F111F8CFFAF4BB0F11F44E
S11304D060FF1BC06F5F7F4F8F4F9F4F16C08823F5
S11304E011F096E911C0772321F09EE8872F762F2B
S11304F005C0662371F096E8862F70E060E02AF06C
S11305009A95660F771F881FDAF7880F9695879557
S113051097F9089597F99F6780E870E060E008957F
S11305209FEF80EC089500240A9416161706180607
S11305300906089500240A941216130614060506E3
S11305400895092E0394000C11F4882352F0BB0F74
S113055040F4BF2B11F460FF04C06F5F7F4F8F4FD7
S11305609F4F089557FD9058440F551F59F05F3F12
S113057071F04795880F97FB991F61F09F3F79F0C1
S113058087950895121613061406551FF2CF469543
S1130590F1DF08C0161617061806991FF1CF8695C5
S11305A07105610508940895E894BB2766277727A9
S11305B0CB0197F908950E94EE020C94A1020E94C7
S11305C0930238F00E949A0220F0952311F00C94C3
S11305D08A020C94900211240C94D5020E94B20257
S11305E070F3959FC1F3950F50E0551F629FF00182
S11305F0729FBB27F00DB11D639FAA27F00DB11D9B
S1130600AA1F649F6627B00DA11D661F829F222723
S1130610B00DA11D621F739FB00DA11D621F839FAA
S1130620A00D611D221F749F3327A00D611D231F80
S1130630849F600D211D822F762F6A2F11249F57CE
S113064050409AF0F1F088234AF0EE0FFF1FBB1FD1
S1130650661F771F881F91505040A9F79E3F510590
S113066080F00C948A020C94D5025F3FE4F3983E28
S1130670D4F3869577956795B795F795E7959F5F3A
S1130680C1F7FE2B880F911D9695879597F90895CC
S1070690F894FFCF08
S113069453746172743100496E7465727275707446
S10706A46564000085
S9030000FC
